:100000000C9411160C9442160C9442160C94421641
:100010000C9442160C9442160C9442160C94421600
:100020000C9442160C9442160C9442160C944216F0
:100030000C9442160C9442160C9442160C944216E0
:100040000C9442160C94FC990C9442160C94421693
:100050000C9442160C9442160C94F68A0C9421DCF3
:100060000C9442160C9429430C9442160C9442169C
:100070000C9442160C9442160C9442160C944216A0
:100080000C94769B0C9442160C9442160C944216D7
:100090000C9442160C9442160C9442160C94421680
:1000A0000C9442160C9442160C94489B0C944216E5
:1000B0000C9442160C9442160C9442160C941A9B03
:1000C0000C9442160C9442160C9442160C94421650
:1000D0000C9442160C9442160C9442160C94421640
:1000E0000C944216084AD73B3BCE016E84BCBFFD40
:1000F000C12F3D6C74319ABD56833DDA3D00C77FF8
:1001000011BED9E4BB4C3E916BAAAABE0000008090
:100110003F05A84CCDB2D44EB93836A9020C50B91F
:10012000918688083CA6AAAA2ABE000000803F004B
:100130004E414E494E495459494E46CDCCCC3D0ACC
:10014000D7233C17B7D13877CC2B329595E6241FAF
:10015000B14F0A000020410000C84200401C462068
:10016000BCBE4CCA1B0E5AAEC59D74434F4D4D5577
:100170004E49434154494F4E0044525952554E0046
:100180004552524F525300494E464F004543484F47
:10019000004D6573682056616C69646174696F6EA7
:1001A0002053746F707065642E00696E206D6F76D9
:1001B000655F746F282920666565645F76616C757C
:1001C0006520666F722058593A004C656176696EF9
:1001D0006720473236004732362048656174696EC1
:1001E00067204E6F7A7A6C652E004732362048655C
:1001F0006174696E67204265642E00446F6E6520ED
:100200005072696D696E6700557365722D436F6E2C
:1002100074726F6C6C6564205072696D650046691C
:10022000786564204C656E677468205072696D65EE
:100230002E002C2065793D0029202D3E2028657850
:100240003D002C2073793D0020436F6E6E65637412
:10025000696E672077697468207665727469636176
:100260006C206C696E65202873783D002C206579C0
:100270003D0029202D3E202865783D002C207379F3
:100280003D0020436F6E6E656374696E6720776909
:10029000746820686F72697A6F6E74616C206C6923
:1002A0006E65202873783D004C656176696E672025
:1002B000473236003F53706563696669656420584C
:1002C0002C5920636F6F7264696E617465206F755D
:1002D00074206F6620626F756E64732E0A003F286B
:1002E000522965706561742076616C7565206E6F4A
:1002F0007420706C61757369626C653B206D7573F9
:1003000074206265206174206C6561737420312EE5
:100310000A003F537065636966696564206E6F7A91
:100320007A6C652074656D70657261747572652094
:100330006E6F7420706C61757369626C652E0A0053
:100340003F5370656369666965642066696C616DB9
:10035000656E742073697A65206E6F7420706C61AD
:10036000757369626C652E0A003F53706563696638
:10037000696564207072696D65206C656E6774686C
:10038000206E6F7420706C61757369626C652E0AE3
:10039000003F537065636966696564206E6F7A7AA1
:1003A0006C652073697A65206E6F7420706C61755E
:1003B0007369626C652E0A003F52657472616374E2
:1003C000696F6E204D756C7469706C696572206D13
:1003D000757374206265207370656369666965640E
:1003E0002E0A003F53706563696669656420526533
:1003F0007472616374696F6E204D756C7469706C92
:10040000696572206E6F7420706C61757369626CBF
:10041000652E0A003F537065636966696564206CE8
:100420006179657220686569676874206E6F7420F1
:10043000706C61757369626C652E0A003F5370655C
:10044000636966696564206265642074656D7065C2
:10045000726174757265206E6F7420706C61757353
:1004600069626C65202834302D31343043292E0ADE
:100470000047323620636F6D6D616E642073746166
:10048000727465642E2057616974696E6720666FA7
:1004900072206865617465722873292E0A00656E82
:1004A0007175657565696E672022004B494C4C4536
:1004B000442E200053544F505045442E200050727B
:1004C000696E7465722073746F70706564206475F2
:1004D0006520746F206572726F72732E2046697882
:1004E00020746865206572726F7220616E64207579
:1004F0007365204D39393920746F207265737461CA
:1005000072742E202854656D706572617475726501
:100510002069732072657365742E20536574206999
:100520007420616674657220726573746172746997
:100530006E67290A004E6F20436865636B73756DA3
:100540002077697468206C696E65206E756D6265D0
:10055000722C204C617374204C696E653A20004EF9
:100560006F20436865636B73756D207769746820CD
:100570006C696E65206E756D6265722C204C6173BE
:1005800074204C696E653A2000636865636B73750F
:100590006D206D69736D617463682C204C61737498
:1005A000204C696E653A20004C696E65204E756D71
:1005B000626572206973206E6F74204C61737420C1
:1005C0004C696E65204E756D6265722B312C204C26
:1005D000617374204C696E653A20004D31313000F2
:1005E0004D33310053442072656164206572726F2F
:1005F000720A00446F6E65207072696E74696E676E
:100600002066696C650A0020496E76616C69642019
:100610006578747275646572200000000000000047
:1006200000000000000000004843000048430000B4
:10063000394342696C696E656172204C6576656C00
:10064000696E6720477269643A0A0053756264698B
:1006500076696465642077697468204341544D5518
:100660004C4C20524F4D204C6576656C696E67206E
:10067000477269643A0A00486F6D696E6720666167
:10068000696C656400202844525952554E29004730
:100690003239204175746F20426564204C6576655F
:1006A0006C696E67003F20284C2C522C462C422946
:1006B000206F7574206F6620626F756E64732E0AEA
:1006C000003F2856296572626F7365206C657665F8
:1006D0006C20697320696D706C61757369626C65FB
:1006E0002028302D34292E0A00426164205A2076B9
:1006F000616C75650A004E6F2062696C696E656198
:100700007220677269640A0044656C6574696F6E73
:10071000206661696C65642C2046696C653A20002E
:1007200046696C652064656C657465643A00507256
:100730006F7465637465642050696E0A0020573ACF
:10074000004520436F6F6C696E672E2E2E0045208A
:1007500048656174696E672E2E2E0020573A00425C
:10076000656420636F6F6C696E672E2E2E00426584
:10077000642068656174696E672E2E2E00205A3AD7
:100780000020593A0020436F756E7420583A0020BB
:10079000453A00205A3A0020593A00583A003A00A7
:1007A0004361703A00205A00205900580020204D23
:1007B00061783A2000205A00205900580020204D2E
:1007C000696E3A20004F6E20004F666600536F66D8
:1007D0007420656E6473746F70733A2000236465CF
:1007E00066696E652044454641554C545F4B642014
:1007F0000023646566696E652044454641554C5446
:100800005F4B69200023646566696E652044454638
:1008100041554C545F4B7020005049442041757441
:100820006F74756E652066696E69736865642120F2
:1008300050757420746865206C617374204B702C43
:10084000204B6920616E64204B6420636F6E73746B
:10085000616E74732066726F6D2062656C6F7720B5
:10086000696E746F20436F6E666967757261746933
:100870006F6E2E680A00504944204175746F74757C
:100880006E65206661696C6564212074696D656FB1
:1008900075740A00453120544845524D414C205250
:1008A000554E4157415900546865726D616C205234
:1008B000756E617761790045312048656174696EB4
:1008C00067206661696C65640048656174696E677C
:1008D000206661696C656400504944204175746FFD
:1008E00074756E65206661696C6564212054656D60
:1008F000706572617475726520746F6F20686967C6
:10090000680A00204B643A2000204B693A200020FE
:100910004B703A20000A20436C6173736963205066
:100920004944200A002054753A2000204B753A2093
:1009300000206D61783A2000206D696E3A20002019
:10094000643A200020626961733A200050494420D3
:100950004175746F74756E652073746172740A00EA
:10096000504944204175746F74756E6520666169E5
:100970006C6564212054656D706572617475726573
:1009800020746F6F20686967680A005049442041ED
:1009900075746F74756E65206661696C656421207D
:1009A000426164206578747275646572206E756D3D
:1009B0006265720A004F66660A00466164652048F7
:1009C00065696768742000426564204C6576656CD3
:1009D000696E6720004661696C656420746F2065EC
:1009E0006E61626C6520426564204C6576656C6959
:1009F0006E670A0047322F473320626164207061BE
:100A000072616D65746572730A00536C6565702E52
:100A10002E2E00486F6D65205859206669727374D8
:100A20000A00486F6D65205859206669727374001A
:100A3000205A3A200020593A200042656420583A52
:100A400020004D65736820706F696E742063616E5D
:100A50006E6F74206265207265736F6C7665640AD0
:100A600000436C69636B20746F20726573756D65EC
:100A70002E2E2E004E6F206D6F76652E00456E6413
:100A80002066696C65206C6973740A004265676949
:100A90006E2066696C65206C6973740A00286E6F3D
:100AA0002066696C65290043757272656E742066F4
:100AB000696C653A20005344207072696E74696EE7
:100AC00067206279746520004E6F74205344207053
:100AD00072696E74696E670A002569730025696D15
:100AE00020256973002569682025696D20256973B3
:100AF00000256964202569682025696D20256973B2
:100B00000025697920256964202569682025696D9B
:100B100020256973005072696E742074696D653A9E
:100B200020006F6E2E0A006F66662E0A004732366E
:100B300020446562756720006F6666008C0187013E
:100B4000800179016B0144454255473A004B494CBD
:100B50004C45442E20004D3131332053006F6B0043
:100B600047656565746563682049332050726F205E
:100B700057204F66662E002C20002C20005448453C
:100B8000524D414C5F50524F54454354494F4E00D3
:100B90004155544F5245504F52545F53445F535444
:100BA0004154555300454D455247454E43595F50BA
:100BB000415253455200434153455F4C49474854C5
:100BC0005F4252494748544E45535300544F47479C
:100BD0004C455F4C494748545300534F4654574186
:100BE00052455F504F574552004255494C445F5063
:100BF000455243454E54004C4556454C494E475F7F
:100C000044415441005A5F50524F424500415554AF
:100C10004F4C4556454C005052494E545F4A4F4246
:100C20000050524F4752455353004155544F52457F
:100C3000504F52545F54454D5000564F4C554D4502
:100C40005452494300454550524F4D005345524977
:100C5000414C5F584F4E5F584F4646004649524DF3
:100C6000574152455F4E414D453A4D61726C696E38
:100C700020312E312E395F42465F303231303230F2
:100C800031395F3033202861646F656B68292053E8
:100C90004F555243455F434F44455F55524C3A6868
:100CA000747470733A2F2F6769746875622E636F5E
:100CB0006D2F4D61726C696E4669726D77617265F8
:100CC0002F4D61726C696E2050524F544F434F4C00
:100CD0005F56455253494F4E3A312E30204D4143D5
:100CE00048494E455F545950453A476565657465B6
:100CF00063682049332050726F2057204558545262
:100D0000554445525F434F554E543A31205555494D
:100D1000443A63656465326132662D343161322D47
:100D2000343734382D396231322D633535633632FC
:100D30006633363766660A002F2F20004D31343572
:100D400020533C696E6465783E206F7574206F6631
:100D50002072616E67652028302D31290A002054E9
:100D600000205200416363656C65726174696F6E47
:100D70003A2050005741524E494E4721204C6F7740
:100D8000205A204A65726B206D6179206C65616420
:100D900020746F20756E77616E7465642070617564
:100DA0007365732E0A004F666673657473206170F5
:100DB000706C696564004572723A20546F6F2066EA
:100DC00061722100546F6F206661722066726F6DD0
:100DD000207265666572656E636520706F696E74FA
:100DE0000A0020466C6F773A2000000119171B1685
:100DF000FFFFFFFF1F211D1AFFFFFFFF2527231EF7
:100E0000FFFFFFFFFFFF0C0407FFFFFF2B2D29FF54
:100E1000FFFF044002FF3E3A200020536572766FC8
:100E20002000206F7574206F662072616E67650AFE
:100E300000536572766F2000496E76616C6964209C
:100E400065787472756465720A0020643A002069DE
:100E50003A0020703A0043290A0061626C65642000
:100E6000286D696E2074656D702000436F6C64207E
:100E700065787472756465732061726520004E6FC9
:100E80002063617365206C696768740A004D65733F
:100E90006820706F696E742063616E6E6F7420627B
:100EA00065207265736F6C7665640A004D3432316B
:100EB00020696E636F727265637420706172616D18
:100EC000657465722075736167650A004545505207
:100ED0004F4D204F4B0A003F5A206F7574206F66AC
:100EE0002072616E676520282D323020746F2032A9
:100EF00030290A003A200050726F6265205A204F54
:100F0000666673657400416374697665204578741C
:100F100072756465723A2000496E76616C6964206E
:100F200065787472756465720A00526573656E64E3
:100F30003A20006F6B0020746F6F206C6F6E67201B
:100F4000657874727573696F6E2070726576656E00
:100F50007465640A0020636F6C6420657874727530
:100F600073696F6E2070726576656E7465640A00D1
:100F7000627573793A2070617573656420666F726B
:100F800020696E7075740A00627573793A20706119
:100F90007573656420666F7220757365720A0062EE
:100FA0007573793A2070726F63657373696E670A3F
:100FB000004B494C4C45442E20004B494C4C20637F
:100FC000617573656420627920746F6F206D75633D
:100FD0006820696E6163746976652074696D652047
:100FE0002D2063757272656E7420636F6D6D616E16
:100FF000643A2000506C6561736520726573657496
:10100000005052494E5445522048414C54454400EA
:101010005072696E7465722068616C7465642E200C
:101020006B696C6C28292063616C6C6564210A0013
:1010300000000000000000000000000000007042FE
:101040000000704200007042000000005761726EA4
:10105000696E673A20486F6D696E672042756D70E2
:101060002044697669736F72203C20310A000202C5
:10107000040000A0400000A0400000004000004824
:10108000430000484300003943FFFFFF7C3C3E5EC5
:101090002B3D3F2F5B5D3B2C2A225C004572726F1B
:1010A000722077726974696E6720746F20454550AD
:1010B000524F4D210A00454550524F4D20646174F6
:1010C0006173697A65206572726F722E0A00290A4F
:1010D000002062797465733B20637263200053655E
:1010E0007474696E67732053746F7265642028008E
:1010F000290A002062797465733B206372632000C3
:101100002073746F7265642073657474696E67739D
:1011100020726574726965766564202800202863F2
:10112000616C63756C6174656429210A0020213D3E
:101130002000454550524F4D20435243206D697366
:101140006D61746368202D202873746F7265642943
:1011500020002053697A653A2000496E6465783A28
:101160002000204D61726C696E3D563535290A00AC
:1011700028454550524F4D3D00454550524F4D205A
:1011800076657273696F6E206D69736D61746368E3
:10119000200048617264636F646564204465666121
:1011A000756C742053657474696E6773204C6F613D
:1011B0006465640A00881300008813000032000090
:1011C00000881300000000C8430000C8430000006E
:1011D00040000034420000A0420000A0420000C8CD
:1011E000430000BC423A0A0020286D6D29002020EF
:1011F0004D383531205A005A2D50726F6265204F9C
:1012000066667365740020440020490020204D3339
:1012100030312050005049442073657474696E6702
:10122000733A0A0020460020420020480020204D4A
:101230003134352053004D6174657269616C2068EA
:10124000656174757020706172616D65746572732B
:101250003A0A00205A00204A0020204732392057FD
:10126000204900205A0020204D34323020530041C4
:1012700075746F20426564204C6576656C696E6795
:101280003A0A00205A0020590020204D32303620E2
:101290005800486F6D65206F66667365743A0A0082
:1012A000204500205A0020590020580020540020DA
:1012B000530020204D32303520510020453C6D61D7
:1012C000785F655F6A65726B3E0020583C6D61789F
:1012D0005F785F6A65726B3E20593C6D61785F791B
:1012E0005F6A65726B3E205A3C6D61785F7A5F6A17
:1012F00065726B3E00416476616E6365643A2051AD
:101300003C6D696E5F7365676D656E745F74696D62
:10131000655F75733E20533C6D696E5F66656564FD
:10132000726174653E20543C6D696E5F74726176C3
:10133000656C5F66656564726174653E002054008B
:1013400020520020204D323034205000416363652C
:101350006C65726174696F6E2028756E6974732F85
:101360007332293A20503C7072696E745F61636316
:10137000656C3E20523C726574726163745F616398
:1013800063656C3E20543C74726176656C5F61638A
:1013900063656C3E0A00204500205A002059002059
:1013A000204D3230312058004D6178696D756D20C7
:1013B000416363656C65726174696F6E2028756E38
:1013C0006974732F7332293A0A00204500205A00AD
:1013D00020590020204D3230332058004D6178696B
:1013E0006D756D206665656472617465732028751E
:1013F0006E6974732F73293A0A00204500205A0041
:1014000020590020204D39322058005374657073E4
:101410002070657220756E69743A0A0020204D3282
:1014200030302044300A0020204D3230302044003B
:101430002044697361626C65640A0046696C616D81
:10144000656E742073657474696E67733A0020204A
:101450004D3134392043203B20556E697473206927
:101460006E2043656C736975730A00202047323122
:10147000202020203B005452494747455245440014
:101480006F70656E003A20007A5F6D696E00795F5B
:101490006D696E00785F6D696E005265706F727471
:1014A000696E6720656E6473746F70207374617405
:1014B00075730A0020746F6F206C6F6E67206578FB
:1014C00074727573696F6E2070726576656E74657F
:1014D000640A0020636F6C642065787472757369A8
:1014E0006F6E2070726576656E7465640A0024F410
:1014F000D43050C38E20C2A24017828B7011127A52
:10150000910D816CD90AA861E108C758660761513D
:1015100043061E4B5D05C145A7041A411104093D50
:101520009803713931034036DB0265339102D430C0
:101530005402802E1D02632CEE01752AC501B028CD
:10154000A001102781018F2564012B244B01E0228B
:101550003401AC211F018D200D01801FFC00841E71
:10156000ED00971DDF00B81CD200E61BC600201B53
:10157000BC00641AB200B219A8000A19A0006A18C7
:101580009900D117910040178B00B51684003116D1
:101590007E00B31579003A157300C7146F00581414
:1015A0006A00EE1366008813630025135E00C712FD
:1015B0005B006C12570015125400C11151007011DC
:1015C0004F0021114B00D61049008D1047004610E6
:1015D000440002104200C00F4000800F3E00420F46
:1015E0003C00060F3B00CB0E3800930E37005C0E1C
:1015F0003500270E3400F30D3200C10D3100900D7F
:101600003000600D2E00320D2D00050D2C00D90C80
:101610002B00AE0C2900850C29005C0C2700350C32
:1016200027000E0C2600E80B2400C40B2400A00B9E
:1016300023007D0B23005A0B2100390B2100180BCE
:101640002000F80A1F00D90A1E00BB0A1E009D0ACE
:101650001D00800A1D00630A1C00470A1B002C0A9B
:101660001B00110A1A00F7091A00DD091900C40944
:101670001900AB091900920917007B0918006309CA
:1016800017004C09160036091600200916000A0931
:101690001500F5081500E0081400CC081400B8087F
:1016A0001400A4081400900813007D0812006B08B1
:1016B00013005808120046081200340811002308CD
:1016C00011001208110001081100F0071000E007D6
:1016D0001000D0071000C0071000B0070F00A107CE
:1016E000100091070E0083070F0074070F006507B5
:1016F0000E0057070E0049070E003B070D002E078E
:101700000E0020070D0013070D0006070D00F90657
:101710000C00ED060D00E0060C00D4060C00C80617
:101720000C00BC060C00B0060C00A4060B009906C9
:101730000C008D060B0082060B0077060B006C0672
:101740000B0061060A0057060B004C060A00420611
:101750000A0038060A002E060A0024060A001A06A5
:101760000A001006090007060A00FD050900F40535
:101770000900EB050900E2050900D9050900D005BB
:101780000900C7050900BE050900B5050800AD053B
:101790000800A50509009C050800940508008C05B3
:1017A0000800840508007C050800740508006C0525
:1017B0000700650508005D050700560508004E0591
:1017C00007004705070040050800380507003105F8
:1017D00007002A050700230507001C05060016055B
:1017E00007000F0507000805060002050700FB04B7
:1017F0000600F5040700EE040600E8040600E20413
:101800000700DB040600D5040600CF040600C90467
:101810000600C3040600BD040600B7040600B104B8
:101820000500AC040600A6040600A00405009B0405
:10183000060095040500900406008A04050085044E
:101840000500800406007A04050075040500700494
:1018500005006B04050066040500610405005C04D6
:10186000050057040500520405004D040500480416
:101870000500430405003E0404003A040500350455
:101880000500300404002C04050027040400230490
:1018900005001E0404001A040400160405001104C7
:1018A00004000D04040009040500040404000004FD
:1018B0000400FC030400F8030400F4030400F00334
:1018C0000400EC030400E8030400E4030400E00364
:1018D0000400DC030400D8030400D4030400D00394
:1018E0000400CC030400C8030300C503030024F470
:1018F00004D9201BC40C5C0E9804C4095F02650760
:101900007101F405F900FB04B30048048700C1032A
:1019100069005803550003034500BE023A008402E3
:10192000310053022A002902250004022000E401AC
:101930001C00C8011900AF011700980114008401B0
:101940001300710110006101100051010E004301EC
:101950000D0036010B002B010B0020010B001501BF
:1019600009000C01090003010800FB000800F30056
:101970000800EB000700E4000600DE000600D800C7
:101980000600D2000600CC000500C7000500C2001A
:101990000500BD000400B9000400B5000400B1005A
:1019A0000400AD000400A9000400A5000300A2008B
:1019B00003009F0004009B000300980003009500B3
:1019C000020093000300900003008D0002008B00D2
:1019D00003008800020086000200840003008100EA
:1019E00002007F0002007D0002007B0002007900FF
:1019F000020077000100760002007400020072000D
:101A00000100710002006F0002006D0001006C0017
:101A100002006A0001006900020067000100660020
:101A20000100650001006400020062000100610025
:101A30000100600001005F0002005D0001005C0029
:101A400001005B0001005A0001005900010058002C
:101A5000010057000100560001005500010054002C
:101A6000010053000000530001005200010051002A
:101A70000100500001004F0001004E0000004E0028
:101A800001004D0001004C0001004B0000004B0024
:101A900001004A0001004900010048000000480020
:101AA000010047000100460000004600010045001B
:101AB0000000450001004400010043000000430015
:101AC000010042000000420001004100000041000E
:101AD0000100400001003F0000003F0001003E0007
:101AE00000003E0001003D0000003D0001003C0000
:101AF00000003C0000003C0001003B0000003B00F7
:101B000001003A0000003A000100390000003900ED
:101B100001003800000038000000380001003700E4
:101B200000003700010036000000360000003600DB
:101B300001003500000035000000350001003400D0
:101B400000003400000034000100330000003300C6
:101B500000003300010032000000320000003200BB
:101B600001003100000031000000310001003000B0
:101B7000000030000000300001002F0000002F00A6
:101B800000002F0000002F0001002E0000002E009A
:101B900000002E0001002D0000002D0000002D008F
:101BA00000002D0001002C0000002C0000002C0083
:101BB00000002C0001002B0000002B0000002B0077
:101BC00000002B0001002A0000002A0000002A006B
:101BD00000002A000100290000002900000029005F
:101BE0000000290000002900010028000000280052
:101BF0000000280000002800000028000100270045
:101C00000000270000002700000027000000270038
:101C1000010026000000260000002600000026002B
:101C2000000026000100250000002500000025001E
:101C30000000250000002500000025000100240010
:101C40000000240000002400000024000000240004
:101C500001002300000023000000230000002300F7
:101C600000002300000023000000230001002200E8
:101C700000002200000022000000220000002200DC
:101C800000002200010021000000210000002100CE
:101C900000002100000021000000210000002100C0
:101CA00001002000000020000000200000002000B3
:101CB00000002000000020000000200000002000A4
:101CC00001001F0000001F0000001F0000001F0097
:101CD00000001F0000001F0000001F0001001E0088
:101CE00000001E0000001E0000001E00000004375F
:101CF00000001E290000511B0000581000001009B0
:101D00000000CC0400007802000041010000626580
:101D1000640A002C2073797374656D2073746F707E
:101D200070656421204865617465725F49443A209A
:101D3000004265642068656174696E672066616948
:101D40006C65640048656174696E67206661696CE2
:101D500065640045312048656174696E672066617D
:101D6000696C65640048656174696E6720666169C5
:101D70006C65640070012C0190012701B001220103
:101D8000C0011D01F00118011002130130020E0103
:101D90006002090190020401C002FF000003FA0082
:101DA0004003F5008003F000D003EB002004E600C0
:101DB0007004E100E004DC004005D700C005D2005B
:101DC0004006CD00D006C8008007C3003008BE0022
:101DD000F008B900C009B400B00AAF00B00BAA0007
:101DE000D00CA500000EA000500F9B00C010960064
:101DF0005012910000148C00C0158700B0178200AB
:101E0000B0197D00D01B7800001E730040206E00CA
:101E100090226900F024640040275F0090295A0056
:101E2000E02B5500102E500020304B0010324600A1
:101E3000E033410090353C001037370070383200F5
:101E4000A0392D00B03A2800A03B2300603C1E00C2
:101E5000103D1900903D1400103E0F00703E0A0026
:101E6000C03E0500003F0000403FFBFF803FF6FF03
:101E7000C03FF1FF453120544845524D414C20525E
:101E8000554E415741590042454420544845524D12
:101E9000414C2052554E4157415900546865726D6E
:101EA000616C2052756E6177617900453120457211
:101EB000723A204D415854454D50004572723A20B7
:101EC0004D415854454D5020424544004D415854D1
:101ED000454D5020747269676765726564004531CD
:101EE000204572723A204D494E54454D500045727E
:101EF000723A204D494E54454D5020424544004DC4
:101F0000494E54454D502074726967676572656427
:101F1000004D383420582059205A204500202F00E9
:101F20002042403A0020403A0025753A253032756B
:101F300000253032753A25303275002D2D2D005395
:101F40004400202020202020002020202000476561
:101F50006565746563682049332050726F2057208F
:101F600052656164792E005072696E74696E672ED5
:101F70002E2E005072696E74207061757365640056
:101F800053746F7720424C546F756368004D32383C
:101F90003020503020533930004465706C6F792008
:101FA000424C546F756368004D32383020503020F9
:101FB00053313000424C546F7563682053656C6632
:101FC0002D54657374004D32383020503020533119
:101FD000323000526573657420424C546F756368EB
:101FE000004D3238302050302053313630004D61B2
:101FF000696E005072696E742061626F72746564FC
:10200000005072696E742066726F6D2053440053E5
:10201000746F70207072696E7400526573756D65AF
:10202000207072696E74004E6F2053442063617299
:1020300064005061757365207072696E7400436F3F
:102040006E74726F6C0050726570617265005475C9
:102050006E6500496E666F2073637265656E00463B
:102060006C6F7700466C6F770046616E2073706509
:1020700065640046616E2073706565640042656446
:1020800000426564004E6F7A7A6C65004E6F7A7A12
:102090006C65004661646520486569676874004640
:1020A000616465204865696768740053706565649C
:1020B000005370656564004D61696E00507265681B
:1020C00065617420504C4120456E64005072656813
:1020D00065617420504C412042656400507265680F
:1020E00065617420504C41005072657061726500EA
:1020F000507265686561742041425320456E6400EA
:1021000050726568656174204142532042656400E5
:102110005072656865617420414253005072657069
:10212000617265004D343238004D32383020503005
:10213000205331363000424C546F7563682053652C
:102140006C662D54657374004D3238302050302049
:1021500053313230005072656865617420414253DA
:10216000005072656865617420504C4100436F6F88
:102170006C646F776E00526573657420424C546FC7
:102180007563680044697361626C6520737465707F
:1021900070657273004D38340053657420686F6D3C
:1021A00065206F66667365747300466164652048D8
:1021B0006569676874004661646520486569676899
:1021C00074004F6666004F6E2000426564204C65C7
:1021D00076656C696E67004C6576656C2062656437
:1021E000004732380A473239004175746F20686FF2
:1021F0006D6500473238004D6F76652061786973F0
:10220000004D61696E004D6F76652058004D6F7608
:10221000652059004D6F7665205A004578747275B7
:10222000646572004D6F766520302E316D6D004D06
:102230006F766520316D6D004D6F76652031306DA4
:102240006D004D6F76652061786973004578747212
:1022500075646572004D6F7665205A004D6F766526
:102260002059004D6F76652058004578747275646A
:102270006572004D6F7665205A004D6F7665205966
:10228000004D6F7665205800507265706172650070
:10229000496E697469616C697A6520454550524F91
:1022A0004D00436F6E74726F6C00526573746F7281
:1022B00065206661696C73616665004C6F616420BE
:1022C00073657474696E677300496E697469616CD3
:1022D000697A6520454550524F4D0053746F7265C1
:1022E0002073657474696E677300424C546F756334
:1022F000680046696C616D656E74004D6F74696F3E
:102300006E0054656D7065726174757265004D6123
:10231000696E0050726568656174204142532063A4
:102320006F6E66005072656865617420504C412084
:10233000636F6E66005049442D44005049442D445B
:10234000005049442D49005049442D49005049440A
:102350002D50005049442D500020022046616374E6
:102360000020022046616374002002204D61780045
:102370002002204D6178002002204D696E0020026D
:10238000204D696E004F6666004F6E2000417574E7
:102390006F74656D700046616E20737065656400D2
:1023A00046616E2073706565640042656400426535
:1023B00064004E6F7A7A6C65004E6F7A7A6C6500B5
:1023C000436F6E74726F6C0053746F726520736527
:1023D0007474696E67730042656400426564004E00
:1023E0006F7A7A6C65004E6F7A7A6C650046616E22
:1023F0002073706565640046616E20737065656466
:102400000054656D70657261747572650056547222
:102410006176206D696E005654726176206D696E2A
:1024200000566D696E00566D696E00566D617820BC
:102430004500566D6178204500566D6178205A0040
:10244000566D6178205A00566D6178205900566D9E
:102450006178205900566D6178205800566D61787A
:102460002058004D6F74696F6E00416D6178204592
:1024700000416D6178204500416D6178205A00412E
:102480006D6178205A00416D6178205900416D617D
:1024900078205900416D6178205800416D617820A5
:1024A0005800412D74726176656C00412D74726123
:1024B00076656C00412D7265747261637400412D04
:1024C0007265747261637400416363656C0041639B
:1024D00063656C004D6F74696F6E0056652D6A659B
:1024E000726B0056652D6A65726B00567A2D6A65AF
:1024F000726B00567A2D6A65726B0056792D6A658B
:10250000726B0056792D6A65726B0056782D6A657C
:10251000726B0056782D6A65726B004D6F74696F2F
:102520006E004573746570732F6D6D00457374652F
:1025300070732F6D6D005A73746570732F6D6D001D
:102540005A73746570732F6D6D0059737465707371
:102550002F6D6D005973746570732F6D6D00587316
:10256000746570732F6D6D005873746570732F6D83
:102570006D004D6F74696F6E0053746570732F6DCD
:102580006D004A65726B00416363656C65726174CE
:10259000696F6E0056656C6F636974790050726F75
:1025A0006265205A204F66667365740050726F62D0
:1025B00065205A204F666673657400436F6E7472AF
:1025C0006F6C0046696C2E204469612E0046696C70
:1025D0002E204469612E004F6666004F6E20004534
:1025E00020696E206D6D3300436F6E74726F6C00E6
:1025F00043616E6E6F7420656E74657220737562D0
:102600006469723A2000052E2E004D61696E004308
:102610006172642072656D6F7665640043617264F7
:1026200020696E73657274656400001C1F11111FB0
:1026300000000006191803130C00040E1F041C00F0
:102640000000000E1315110E00001C1018170506CF
:102650000500040A0A0A0A11110E0C12120C0000DD
:102660000000001F1511151F0000000021002400AC
:1026700027002A002D003000330001010000040172
:1026800007010A0100002200250028002B002E006F
:102690003100340002010000050108010B010000B7
:1026A00020002300260029002C002F00320000010A
:1026B00000000301060109010505050507050808D5
:1026C0000808020202020A0A0808040404040101BC
:1026D00001010101010103030303030303030407D1
:1026E00007070C0C0C0C0C0C0C0C02020202060668
:1026F0000606060606060B0B0B0B0B0B0B0B01025B
:102700001020200808102040102040800201020103
:1027100008040201010204081020408080402010BB
:102720000804020180040201804020100804020114
:10273000080402010102040810204080010204087C
:102740001020408000000A0B02090C0D0E08070340
:102750000401000000000000000000000000000074
:102760000000000000000000000000000000000069
:102770001211100000000000000000000000000026
:102780000000000000000000000000000000010246
:1027900004040000001C1C0C0404040201000000DE
:1027A000000004081000000000002D2D2D2D2D2DFF
:1027B000007C4D61726C696E7C002D2D2D2D2D2DB0
:1027C00000687474703A2F2F6D61726C696E667751
:1027D0002E6F726700687474703A2F2F6D61726C7F
:1027E000696E66772E6F726700312E312E395F4227
:1027F000465F30323130323031395F303300312E84
:10280000312E395F42465F30323130323031395FFC
:10281000303300002020506C616E6E657242756628
:1028200066657242797465733A2000204672656568
:10283000204D656D6F72793A2000436F6D70696C41
:1028400065643A204F637420313620323032300ACA
:1028500000207C20417574686F723A2028626164A0
:102860006A696E6E2C2061646F656B6869652C20E7
:102870004D61726C696E204765656574656368209B
:10288000312E312E39290A00323032302D31302D9F
:10289000313600204C617374205570646174656436
:1028A0003A2000312E312E395F42465F30323130CE
:1028B000323031395F30330A004D61726C696E001D
:1028C00020536F6674776172652052657365740A70
:1028D00000205761746368646F6720526573657484
:1028E0000A002042726F776E206F757420526573F4
:1028F00065740A002045787465726E616C205265BB
:102900007365740A00506F77657255700A007374AE
:102910006172740A006175746F25692E67006572B3
:10292000726F722077726974696E6720746F2066A7
:10293000696C650A00456E6473746F70732025635B
:1029400020256320256320256300205A3A00205962
:102950003A0020583A00656E6473746F7073206893
:1029600069743A2000446F6E6520736176696E6702
:102970002066696C652E0A004D3239004D323400F4
:102980004D323320257300556E6B6E6F776E20636A
:102990006F6D6D616E643A20220050726F62696ED5
:1029A00067206661696C65640A0050726F62696EC7
:1029B00067206661696C656400205A3A20002059DE
:1029C0003A200042656420583A200053544F50503A
:1029D00045442E20005072696E7465722073746FC6
:1029E000707065642064756520746F206572726F05
:1029F00072732E2046697820746865206572726F44
:102A00007220616E6420757365204D3939392074E8
:102A10006F20726573746172742E202854656D7016
:102A2000657261747572652069732072657365746F
:102A30002E2053657420697420616674657220725B
:102A4000657374617274696E67290A0053544F503C
:102A50002063616C6C6564206265636175736520D9
:102A60006F6620424C546F756368206572726F7296
:102A7000202D2072657374617274207769746820E8
:102A80004D3939390A00486F6D6520257325732546
:102A900073206669727374002066697273740A0029
:102AA0005A0059005800486F6D6520005344206358
:102AB000617264206F6B0A006F70656E526F6F7485
:102AC000206661696C65640A00766F6C756D652EB1
:102AD000696E6974206661696C65640A00534420FC
:102AE000696E6974206661696C0A0057726974695D
:102AF0006E6720746F2066696C653A20006F7065A0
:102B00006E206661696C65642C2046696C653A20AC
:102B1000006F70656E206661696C65642C20466983
:102B20006C653A200046696C652073656C6563745A
:102B300065640A002053697A653A200046696C652D
:102B4000206F70656E65643A20002066696C653A96
:102B50002000646F696E67006672657368004E6F6F
:102B6000772000454E4420535542524F5554494E0C
:102B7000450A002220706F73002220706172656E1A
:102B8000743A2200535542524F5554494E45204302
:102B9000414C4C207461726765743A22004B494C79
:102BA0004C45442E2000747279696E6720746F2042
:102BB00063616C6C207375622D67636F646520665A
:102BC000696C6573207769746820746F6F206D611C
:102BD0006E79206C6576656C732E204D4158206CA3
:102BE0006576656C2069733A004572726F723A00BF
:102BF0006F70656E206661696C65642C2046696C37
:102C0000653A200043616E6E6F74206F70656E20B0
:102C100073756264697220006563686F3A0027F912
:102C200052F711241FBECFEFD1E2DEBFCDBF00E0CF
:102C30000CBF13E0A0E0B2E0E2EFF7E102E00BBF6F
:102C400002C007900D92A035B107D9F724E1A0E5A5
:102C5000B3E001C01D92A638B207E1F716E1C0E16A
:102C6000D6E100E006C021970109802FFE010F94F4
:102C7000610BCF30D10780E00807A9F70E940BFA5B
:102C80000D94E80B0C940000CF92DF92EF92FF922C
:102C9000CF93DF93EC01C090300BD090310BE090DC
:102CA000320BF090330BA7019601688179818A81FC
:102CB0009B810F942E0487FF04C0C882D982EA82C8
:102CC000FB82C090340BD090350BE090360BF09027
:102CD000370BA70196016C817D818E819F810F94B6
:102CE0002E0487FF04C0CC82DD82EE82FF82C0907A
:102CF0002D02D0902E02E0902F02F0903002A7011A
:102D00009601688179818A819B810F948C0A1816BB
:102D100024F4C882D982EA82FB82C0903102D0902A
:102D20003202E0903302F0903402A70196016C81E8
:102D30007D818E819F810F948C0A181624F4CC8299
:102D4000DD82EE82FF82C090380BD090390BE0908C
:102D50003A0BF0903B0BA7019601688579858A852F
:102D60009B850F942E0487FF04C0C886D986EA8607
:102D7000FB86C0903502D0903602E0903702F0908A
:102D80003802A7019601688579858A859B850F940D
:102D90008C0A181624F4C886D986EA86FB86DF9149
:102DA000CF91FF90EF90DF90CF900895CF92DF9278
:102DB000EF92FF92CF93DF936B017C01EA012FE644
:102DC00032E143E85AEB0F948C0A87FD23C022E4DA
:102DD00030E048E453E4C701B6010F942E041816FE
:102DE000CCF0C880D980EA80FB802FE632E143E84E
:102DF0005AEBC701B6010F948C0A87FD0BC0C1E0E6
:102E000022E430E048E453E4C701B6010F942E04F5
:102E100018160CF4C0E08C2FDF91CF91FF90EF904B
:102E2000DF90CF9008958F929F92AF92BF92CF92F2
:102E3000DF92EF92FF92CF93DF93D82FC62F882394
:102E400009F182E0D430F9F0662309F464C0E2E0CD
:102E5000643009F461C02D2F2150330BC901220FBA
:102E6000331F820F931FC150DD0BC80FD91FCC0F2A
:102E7000DD1FCC0FDD1FC95FD94F688179818A8141
:102E80009B812BC080E09FEF9C0F933088F5D0E0B2
:102E90009E012150310990E0FC01EE0FFF1FE80F69
:102EA000F91FE20FF31FEE0FFF1FEE0FFF1FE95F89
:102EB000F94F60817181828193819B01AC010F94F4
:102EC0006608CC0FDD1FCC0FDD1FC15FD94F2881F5
:102ED00039814A815B810F946508DF91CF91FF9022
:102EE000EF90DF90CF90BF90AF909F908F9008951C
:102EF0006C2F8F5F98DF6B017C016C2F82E093DF7A
:102F00004B015C01A7019601C701B6010F94660849
:102F1000A5019401E0CFE0E08FEF8D0F833038F50D
:102F20002D2F2150330BE901B901660F771F620F76
:102F3000731FE60FF72FF11DEE0FFF1FEE0FFF1FA0
:102F4000E95FF94F60817181828193819B01AC01BE
:102F50000F9466082CE02C9FF0012D9FF00D11249A
:102F6000E95FF94F2481358146815781B4CF61E013
:102F70006E0F8D2F58DF6B017C0162E08D2FBFCF6C
:102F800097E0899FF0011124E60FF11DEE0FFF1F5E
:102F9000EE0FFF1FE950FB4F6081718182819381A9
:102FA000089590E0FC01EE0FFF1FE80FF91FE60FF8
:102FB000F11DEE0FFF1FEE0FFF1FE95FF94F60815C
:102FC00071818281938108958091300490913104C0
:102FD000A0913204B091330480935502909356022D
:102FE000A0935702B093580280912E0490912F0421
:102FF00090932C0280932B0208958091550290911A
:103000005602A0915702B0915802809330049093D9
:103010003104A0933204B093330480912B02909139
:103020002C0290932F0480932E0484E690E09093DA
:103030002C0280932B0208950F931F93CF93DF935D
:1030400094E0899FE00111248E010159114FFE0186
:10305000EC54F34FDE01AF50BA4F2D913D914D919D
:103060005C9160817181828193810F946608F8017F
:103070006083718382839383FE01E65EF94F8591BD
:103080009591A591B491FE01E05DF44F8083918309
:10309000A283B383FE01EA5DF94F85919591A591D5
:1030A000B491C35DDD4F88839983AA83BB83DF918D
:1030B000CF911F910F910895809A889808959091CB
:1030C000C40CE92FF0E0E054F34F80839F5F94300D
:1030D00040F49093C40C8091460E8F5F8093460E0F
:1030E00008951092C40CF7CF089590E080E0089501
:1030F0008091DD049091DE042FEF3FEF981751F09F
:10310000E92FF0E0E35AFB4F208130E09F5F9F778B
:103110009093DE04C901089580E1E5EBFEE0A9EC9F
:10312000BEE001900D928A95E1F7089580E1E9EC07
:10313000FEE0A5EBBEE001900D928A95E1F70895BF
:103140000F931F93CF93DF93EC010E9445DA0E811A
:103150001F8128853985011511052105310579F56E
:103160002C85222339F1EA8521502C8721E02E0F6E
:103170002A873D85231301C01A86F0E03196EE0FB1
:10318000FF1FEE0FFF1FEC0FFD1F02851385248527
:1031900035850A831B832C833D83600F711F811D3E
:1031A000911D6E837F83888799878C819D81892B70
:1031B00009F05B9ADF91CF911F910F910895601BE9
:1031C000710B820B930B97FDF5CF5B981E821F82CC
:1031D00018861986EFCFCF92DF92EF920F931F934D
:1031E000CF93DF93CDB7DEB760970FB6F894DEBF0D
:1031F0000FBECDBFE0909A0CE5EBFEE08085918597
:10320000A285B385448155816681778100811181D2
:103210002281338109831A832B833C834D835E8310
:103220006F83788789879A87AB87BC871D861E86C0
:103230001F86188AAE01475F5F4FBE016B5F7F4FED
:10324000CE0101960E941EACCE010D966C0105E5E3
:1032500012E021EC3EE0AE01475F5F4FBE016B5FC5
:103260007F4F0C970E944C9D60960FB6F894DEBF7E
:103270000FBECDBFDF91CF911F910F91EF90DF90E7
:10328000CF9008952F923F924F925F926F927F92CC
:103290008F929F92AF92BF92CF92DF92EF92FF9266
:1032A0000F931F93CF93DF93CDB7DEB7E0970FB6A1
:1032B000F894DEBF0FBECDBF80912D0B90912E0BE9
:1032C00023E030E0B9010F944E0B8B0180912B0B62
:1032D00090912C0BB9010F944E0B072E000C880B0C
:1032E000990B0F9434046B017C012DEB37E346E816
:1032F00055EB0F948C0A87FD0BC02DEB37E346E8A6
:1033000055E3C701B6010F942E0418160CF0F7C050
:10331000A701960160E070E080E89FE30F94420906
:103320006093C7057093C8058093C9059093CA053B
:10333000B801110F880B990B0F9434046B017C01B9
:103340002DEB37E346E855EB0F948C0A87FD0BC055
:103350002DEB37E346E855E3C701B6010F942E0481
:1033600018160CF0D0C0A701960160E070E080E86C
:103370009FE30F9442096093CB057093CC05809333
:10338000CD059093CE0587EFA82E84E0B82E10E0EF
:10339000650124E02CA300E01601F12C912C812C76
:1033A0008F2D90E0B0E0A0E08BA79CA7ADA7BEA7B3
:1033B000E82CFF2019F0123009F468C0EE2019F053
:1033C000023009F463C06BA57CA58DA59EA50F9462
:1033D000320420E030E040E450E40F9442096FA34F
:1033E00078A789A79AA76E2D70E090E080E00F94EF
:1033F000320420E030E040E450E40F9442092B0115
:103400003C01DE015196BBA3AAA3E02EBAA1BFA73F
:10341000EBA1E8ABCE0101969EA38DA319A269A1F1
:10342000610F8E2D00DDADA1BEA16D937D938D93B7
:103430009D93BEA3ADA3B9A1BF5FB9A3B43079F783
:103440004FA158A569A57AA5CE0101960E9467D221
:10345000EAA1FBA16193719381939193FBA3EAA3EA
:10346000E394FCA1EF12D6CFB301A2018FA598A9D6
:103470000E9467D22CE1289DF001299DF00D1124B6
:10348000E20DF31D60837183828393838FEF881A2B
:10349000980A93E08916910409F08ACFF394A4E086
:1034A0002A0E311CB3E0FB1279CF0F5FE4E5CE0E9C
:1034B000D11CFCA1FF5FFCA3033009F06DCF1F5F9F
:1034C0002CE0A20EB11C133009F062CFE0960FB6CB
:1034D000F894DEBF0FBECDBFDF91CF911F910F914A
:1034E000FF90EF90DF90CF90BF90AF909F908F9024
:1034F0007F906F905F904F903F902F90089560E085
:1035000070E0CB010DCF60E070E0CB0134CFBACEDC
:103510008091C5039091C603009731F04AE050E0D6
:1035200070E060E00D944A0160E070E0CB01089526
:10353000EFDF97FD0AC0ECDF6F3F71058105910554
:1035400009F02CF4E5DF862F089580E008958FEFD1
:1035500008958091C5039091C603892B39F0E8DF67
:1035600091E0811101C090E0892F089591E0FCCF96
:103570008091C5039091C603009731F04AE050E076
:1035800070E060E00D94750260E070E0CB0108959A
:103590008091EB1082FF0BC063E681E991E00E940D
:1035A000ECE40E949ADA0E948CE481E0089580E0C5
:1035B00008952F923F924F925F926F927F928F92D7
:1035C0009F92AF92BF92CF92DF92EF92FF920F93B2
:1035D0001F93CF93DF93CDB7DEB76D970FB6F894F7
:1035E000DEBF0FBECDBF9A8F898F7C8F6B8F312C42
:1035F000212C2FEF28873FEF3F838FEF888B9FE4AD
:10360000998BE3ECEA8BF7E4FB8B21E030E0022CB2
:1036100002C0220F331F0A94E2F7388F2F8B80E904
:1036200093E09B878A8710E000E02D8EEA85FB857A
:1036300081919191FB87EA872F89388D822393238B
:10364000892B09F0EBC080912B0B90912C0B289EBD
:10365000B001299E700D389E700D11248091FD05DA
:103660009091FE05680F791F072E000C880B990BAF
:103670000F9434046C877D878E879F8780912D0BF4
:1036800090912E0B089FB001099F700D189F700D2F
:1036900011248091FF0590910006680F791F072E75
:1036A000000C880B990B0F9434046B017C012C8562
:1036B0003D854E855F85E98DFA8D608171818281BE
:1036C00093810F9465082B013C01A7019601EB8DB6
:1036D000FC8D60817181828193810F9465084B011B
:1036E0005C01A3019201C301B2010F9493042B0169
:1036F0003C01A5019401C501B4010F9493049B0101
:10370000AC01C301B2010F9466080F94D10A4B01BA
:103710005C012C853D854E855F856091B403709179
:10372000B5038091B6039091B7030F9465082B0100
:103730003C01A70196016091B0037091B1038091A3
:10374000B2039091B3030F9465086B017C01A30150
:103750009201C301B2010F9493042B013C01A70114
:103760009601C701B6010F9493049B01AC01C301FC
:10377000B2010F9466080F94D10A20E030E040E7D0
:1037800051E40F944209A50194010F9466086B015E
:103790007C018090B8039090B903A090BA03B090D8
:1037A000BB0320E030E040E85FE3C501B4010F94C3
:1037B0008C0A1816F4F4C501B4010F94AA094B0140
:1037C0005C0160E070E0CB01181419041A041B04BA
:1037D00034F40E949DFFA50194010F942A080F94D0
:1037E00034049B01AC01B601C7010F9466086B015C
:1037F0007C01288939894A895B89B601C7010F9400
:103800002E0487FF0BC0FD8DF8870F83C986DC8AE5
:10381000ED8AFE8AC88AD98AEA8AFB8A0F5F1F4F1F
:103820000330110509F002CF2FEF221A320A33E0DC
:103830002316310409F0E9CE8F81E82FF0E0EE0F76
:10384000FF1FE057FC4F21E030E0088402C0220F48
:10385000331F0A94E2F780819181822B932B91830D
:10386000808389859C89AD89BE898B839C83AD8348
:10387000BE83482F5C816D817E8128853F8180E0F9
:1038800090E06D960FB6F894DEBF0FBECDBFDF910E
:10389000CF911F910F91FF90EF90DF90CF90BF904D
:1038A000AF909F908F907F906F905F904F903F90E0
:1038B0002F9008958F929F92AF92BF92CF92DF92F6
:1038C000EF92FF920F93CF93DF931F92CDB7DEB7A6
:1038D0006C017B014901809101065B01A40EB51EBC
:1038E0008823A1F0F60180819181480F591F5183EF
:1038F00040830F90DF91CF910F91FF90EF90DF9079
:10390000CF90BF90AF909F908F900895F6018081E7
:1039100091810F94E307898390910206992311F016
:10392000002311F0F7018083BE016F5F7F4FC40158
:103930000E9453D3F6018081918101969183808307
:10394000FFEFEF1AFF0AEA14FB0401F7D2CFFC01E4
:1039500020E03EE2DB014D91BD01403249F02830CC
:1039600011F430833196DB0111974C9140833196ED
:103970002F5F2B3079F71082089561E0FC01808180
:103980000C94B1D68EBD0DB407FEFDCF08958FEF18
:103990008EBD0DB407FEFDCF8EB508958F929F9218
:1039A000AF92BF92EF92FF920F931F93CF937C0140
:1039B000C62F49015A01FC019281892F806A8695A0
:1039C0008CBD90FD03C081E0963009F480E08DBD90
:1039D00060E0F70180810E94B1D68CE291E00E9404
:1039E000D3DA8C2F8064CEDF08E110E0D501C4016A
:1039F000002E04C0B695A795979587950A94D2F79F
:103A0000C1DF08501109083FFFEF1F0779F785E96B
:103A1000CC2321F087E8C83009F08FEFB3DFCC303A
:103A200009F4B5DFC0E0B3DFF701838387FF04C08B
:103A3000CF3F11F0CF5FF7CFCF911F910F91FF9044
:103A4000EF90BF90AF909F908F9008950F931F932A
:103A5000CF93DF93EC0189018C81833039F089E0C9
:103A6000440F551F661F771F8A95D1F79A01AB0146
:103A700068E1CE0193DF882319F086E0898335C0A1
:103A80008EEF8EBDF801C8019E5F0DB407FEFDCF1D
:103A900020812EBD0DB407FEFDCF21812EBD3296B3
:103AA000E817F90791F70DB407FEFDCF8FEF6ADF36
:103AB0008FEF68DF6CDF8B838F71853091F488E541
:103AC00092E00E94D3DA182F87E11123B9F220E0A7
:103AD00030E0A9016DE0CE0161DF882351F086E17D
:103AE000CDCF83E18983CE0148DFCE0146DF10E0F0
:103AF00005C04DDF8111F3CFCE013FDF812FDF9174
:103B0000CF911F910F910895CF938091E110C1E063
:103B1000882399F04091D9105091DA106091DB1010
:103B20007091DC1029ED3EE08091E2109091E3105D
:103B30008DDFC82F811104C0C0E08C2FCF91089574
:103B40004091DD105091DE106091DF107091E01017
:103B5000411551056105710589F029ED3EE080911F
:103B6000E2109091E31072DF882331F31092DD10A0
:103B70001092DE101092DF101092E0101092E110FF
:103B8000DCCFEF92FF920F931F93CF93DF93EC0163
:103B900079018C81833039F089E0440F551F661F0D
:103BA000771F8A95D1F79A01AB0161E1CE01F6DE6C
:103BB000882331F084E08983CE01DFDE80E034C0E9
:103BC0000E9445DA8B01E3DE8B838F3F71F40E9404
:103BD00045DA601B710B6D327140A8F381E1898376
:103BE000CE01CBDE8FEFCEDEE9CF8E3F11F08FE03E
:103BF000F6CF8FEF8EBDF701D701A150BE4F0DB4A8
:103C000007FEFDCF9EB591938EBDAE17BF07B9F7E6
:103C10000DB407FEFDCF8EB58C93B9DEB8DECE01B4
:103C2000ACDE8FEFAFDE81E0DF91CF911F910F917E
:103C3000FF90EF900895CF92DF92EF92FF92CF9393
:103C40006B017C01C42F8091D9109091DA10A09162
:103C5000DB10B091DC108C159D05AE05BF05F1F0B1
:103C600053DF811108C0C0E08C2FCF91FF90EF90FF
:103C7000DF90CF90089529ED3EE0B701A601809135
:103C8000E2109091E3107DDF882369F3C092D91090
:103C9000D092DA10E092DB10F092DC10CC2321F00D
:103CA00081E08093E110E0CFC1E0DECF4F925F92E0
:103CB0006F927F928F929F92AF92BF92CF92DF923C
:103CC000EF92FF920F931F93CF93DF93EC0142305B
:103CD00051056105710590F480E0DF91CF911F914E
:103CE0000F91FF90EF90DF90CF90BF90AF909F909B
:103CF0008F907F906F905F904F90089589859A85FF
:103D0000AB85BC850196A11DB11D84179507A6073B
:103D1000B70710F38F898031C1F5852E962EA72E17
:103D2000BB248B899C89AD89BE89880E991EAA1EE9
:103D3000BB1E280139016A017B0141E0C501B401C4
:103D40007ADF882349F29F89903181F5DD24EE24C2
:103D5000FF24F601EE0FFF1FE752F14F118300839E
:103D60009A89923008F4B9CF4D815E816F81788550
:103D7000840E951EA61EB71E8092DD109092DE1056
:103D8000A092DF10B092E010A8CF803209F0A4CF4B
:103D90008B899C89AD89BE894A015B01E7E0B694B5
:103DA000A79497948794EA95D1F7BFCFE894C7F882
:103DB000DD24EE24FF24F601EE0FFF1FEE0FFF1FA0
:103DC000E752F14F4082518262827382C9CFCF9213
:103DD000DF92EF92FF920F931F93CF93DF93FC013B
:103DE00081859285A385B4850196A11DB11D841797
:103DF0009507A607B70750F480E0DF91CF911F9198
:103E00000F91FF90EF90DF90CF90089587898031D8
:103E1000A9F5BB27A72F962F852FC388D488E588BF
:103E2000F6888C0D9D1DAE1DBF1DE9016A017B0149
:103E30008F014091D9105091DA106091DB10709190
:103E4000DC1084179507A607B70749F5F80187899D
:103E5000803161F5B701A601552766277727440F02
:103E6000551F4752514FFA0180819181B0E0A0E087
:103E700088839983AA83BB8381E0BFCF803209F016
:103E8000BBCFC388D488E588F688DB01CA01C7E0C8
:103E9000B695A79597958795CA95D1F7C2CF40E07B
:103EA000BC01CD01C8DE8111D1CFA6CFB701A601DB
:103EB0004F77552766277727440F551F440F551F07
:103EC0004752514FFA0180819181A281B381BF7025
:103ED000CFCF4F925F926F927F92AF92BF92CF926D
:103EE000DF92EF92FF920F931F93CF93DF9300D057
:103EF0001F92CDB7DEB78C0149835A836B837C83D5
:103F00005901C12CD12C7601412C82E0582E612C14
:103F1000712C49815A816B817C819E012F5F3F4FBB
:103F2000C80155DF882319F1F8018585A3019201A5
:103F300004C0220F331F441F551F8A95D2F7DA01A0
:103F4000C901C80ED91EEA1EFB1E49815A816B8128
:103F50007C8187898031F1F481E0483F5F4F6105C2
:103F60007105B8F2F501C082D182E282F3820F902E
:103F70000F900F900F90DF91CF911F910F91FF90B5
:103F8000EF90DF90CF90BF90AF907F906F905F9059
:103F90004F90089581E0483F5F4F6F4F7F4008F496
:103FA000B8CFE0CF0F931F93CF93DF93FC01238112
:103FB000222331F080E0DF91CF911F910F9108957E
:103FC0008B01EC01FB018789803139F582E08B831D
:103FD0001D8A1E8A1F8A188E808D918DB0E0A0E008
:103FE00025E0880F991FAA1FBB1F2A95D1F7898B3F
:103FF0009A8BAB8BBC8B1A8F098F81E089831886D3
:1040000019861A861B861C821D821E821F82188AB0
:104010001C861D861E861F86CECF803259F683E011
:104020008B83428D538D648D758D4D8B5E8B6F8B25
:10403000788F9E012F5E3F4FC8014BDF8111DBCF90
:10404000B9CF8F929F92AF92BF92CF92DF92EF92B1
:10405000FF920F931F93CF93DF93EC018B8181111C
:104060000EC080E0DF91CF911F910F91FF90EF90F4
:10407000DF90CF90BF90AF909F908F900895098967
:104080001A892B893C89041715072607370748F337
:104090004A015B01823031F488869986AA86BB8604
:1040A00081E0E0CF81149104A104B10449F41886A1
:1040B00019861A861B861C821D821E821F82F0CFE3
:1040C000088519852A853B85E98DFA8D858590E0DF
:1040D0000996B901A8014150510961097109082ED9
:1040E00004C076956795579547950A94D2F7750160
:1040F0006401E1E0CE1AD108E108F10804C0F694A9
:10410000E794D794C7948A95D2F7C416D506E606E5
:10411000F70620F0012B022B032B09F58D899E89D0
:10412000AF89B88D8C839D83AE83BF838E010C5F76
:104130001F4FC114D104E104F10409F4ADCF4C8147
:104140005D816E817F819801898D9A8D40DE91E03D
:10415000C91AD108E108F1088111EBCF82CFC41A46
:10416000D50AE60AF70AE2CF40E050E0BA0169CF8B
:104170003F924F925F926F927F928F929F92AF92F7
:10418000BF92CF92DF92EF92FF920F931F93CF9344
:10419000DF93CDB7DEB72C970FB6F894DEBF0FBE16
:1041A000CDBF5C01DC0159968D909C90F401818516
:1041B0009285A385B4859C01AD012F5F3F4F4F4F82
:1041C0005F4F29873A874B875C87D50114964D90BE
:1041D0005D906D907C9017974114510461047104B7
:1041E00009F458C0BFEF4B1A5B0A6B0A7B0A312CEB
:1041F000730162011D821E821F821886F40181856F
:104200009285A385B4852D813E814F8158852817DD
:1042100039074A075B0708F054C089859A85AB8542
:10422000BC858C159D05AE05BF0550F482E0C82EF7
:10423000D12CE12CF12C92E0492E512C612C712CC7
:104240009E012F5F3F4FB701A601C401C0DD882347
:10425000C1F189819A81AB81BC81892B8A2B8B2BFF
:1042600001F1260137019FEF491A590A690A790AB3
:104270002D813E814F8158852F5F3F4F4F4F5F4FBC
:104280002D833E834F8358873FEFC31AD30AE30A37
:10429000F30AB4CF4080518062807380332433941A
:1042A000A7CFC414D504E604F70411F70FEF1FEFEE
:1042B0002FEF3FE0B701A601C401F8DC782E811191
:1042C0001AC0712C872D2C960FB6F894DEBF0FBE46
:1042D000CDBFDF91CF911F910F91FF90EF90DF90B5
:1042E000CF90BF90AF909F908F907F906F905F9096
:1042F0004F903F900895F501448155816681778103
:10430000411551056105710531F097018601C40120
:10431000CDDC8823B1F2D5011496CD92DD92ED92D9
:10432000FC921797332051F0D701C6010196A11DC9
:10433000B11DF40180839183A283B383F501858944
:104340009689A789B08D892B8A2B8B2B09F0BACF40
:10435000C58AD68AE78AF08E818180688183B2CF50
:10436000CF93DF93EC01462F41706C857D858E8560
:104370009F8561DC882351F0888920E2829FC001FB
:1043800011248752914FDF91CF91089590E080E002
:10439000FACFCF93DF93EC018B81882339F18981A8
:1043A00087FF21C061E0CE01DBDFFC01892BF1F04A
:1043B0008081853ED9F08B81823040F489899A8949
:1043C000AB89BC89848F958FA68FB78F8D899E8985
:1043D000938F828F8D899E89AF89B88DB58BA48B81
:1043E00089818F778983DF91CF918ECB81E088831C
:1043F00080E0DF91CF9108952F923F924F925F928C
:104400006F927F928F929F92AF92BF92CF92DF92E4
:10441000EF92FF920F931F93CF93DF9300D01F92E1
:10442000CDB7DEB78C014B011A01DC0113968C91DC
:104430001397813009F0C7C011968C9181FFC3C0DA
:1044400082FDAEC06101D80118964D915D916D91CC
:104450007C911B97C114D10409F414C159968D9114
:104460009C915A97FC0174802FEF270D2A013B0184
:1044700039E076946794579447943A95D1F7722E21
:1044800074207A01F1E0FF2271101FC0E114F104E1
:10449000E1F414964D915D916D917C9117974115C2
:1044A00051056105710509F094C055968D919D9156
:1044B0000D90BC91A02D0097A105B10509F0A1C0F8
:1044C000C80156DE882309F47EC080E092E08E1990
:1044D0009F0956018C159D0508F45C01D801599679
:1044E0004D915C915A9714968D919D910D90BC9130
:1044F000A02D0297A109B109FA01258504C0880FF2
:10450000991FAA1FBB1F2A95D2F746855785608938
:104510007189840F951FA61FB71F9C01AD01270D40
:10452000311D411D511D29013A01A11432E0B3068C
:1045300009F075C08091D9109091DA10A091DB102C
:10454000B091DC10481659066A067B0669F4109291
:10455000E1108FEF9FEFDC018093D9109093DA1078
:10456000A093DB10B093DC109401B301A201809101
:10457000E2109091E3106ADA882329F1F80180852E
:104580009185A285B3858A0D9B1DA11DB11D8087D4
:104590009187A287B3878A0C9B1CCA18DB0853CF6C
:1045A000F801418952896389748980859185A28542
:1045B000B385481759076A077B0709F443CFC80139
:1045C00040DD81113FCF81E0D8018C938FEF9FEFC9
:1045D0006FC09E012F5F3F4FFADB8823A1F38981D3
:1045E0009A81AB81BC81F801218D328DF901278937
:1045F000203169F4883FFFEF9F07A105B10508F05E
:104600005FCFF80184839583A683B7835ECF883F0D
:104610002FEF9207A2072FE0B20798F351CFE114D2
:10462000F10449F5D80118964D915D916D917C91F9
:104630001B9751968D919D910D90BC91A02D48177F
:1046400059076A077B07B8F05FDA882309F4BBCF04
:1046500081E08093E1104092D9105092DA1060927C
:10466000DB107092DC10A501B401C7018752914F95
:104670000F947E0B83CF41E0C301B201DCDA8111DC
:10468000F2CFA1CFF80181899289A389B4898417D7
:104690009507A607B70738F48181418B528B638B4E
:1046A000748B80688183F801818183FD18C0C1010A
:1046B0000F900F900F900F90DF91CF911F910F915E
:1046C000FF90EF90DF90CF90BF90AF909F908F9032
:1046D0007F906F905F904F903F902F900895C8010A
:1046E00058DE8111E4CF6FCFCF93DF931F92CDB708
:1046F000DEB7698341E050E0BE016F5F7F4F0496F3
:104700007BDE0F90DF91CF910895CF93DF93EC0183
:1047100040DE1B82DF91CF910895FC01238121119E
:10472000F4CF0895CF93DF93EB01FC012381211196
:1047300004C080E0DF91CF9108952250223028F408
:104740008FE28883198281E0F5CF60E009DE00976F
:1047500081F3DC0160E080E09EE22D91203299F04F
:10476000883031F49E01260F311DF90190836F5F6F
:104770009E01260F311DAD0141505109FA014081C2
:10478000F90140836F5F8F5F8B3039F7FE01E60FD1
:10479000F11D1082D8CF0F931F93CF93DF938B011E
:1047A000EA01DB016D917C910496BCDFD801ED91AB
:1047B000FC91119788819081992349F08D38A0F45C
:1047C0003196ED93FC9388818F5F8883EFCF8D388E
:1047D00058F48FE28083F801808191810196918362
:1047E000808388818F5F8883DF91CF911F910F91A4
:1047F00008952F923F924F925F926F927F928F9285
:104800009F92AF92BF92CF92DF92EF92FF920F935F
:104810001F93CF93DF9300D01F92CDB7DEB79C8359
:104820008B834B017A01DC0113968C91811119C0A5
:104830008FEF9FEF0F900F900F900F90DF91CF9120
:104840001F910F91FF90EF90DF90CF90BF90AF90AE
:104850009F908F907F906F905F904F903F902F90A0
:104860000895EB81FC81818180FFE2CF018912896B
:10487000238934894085518562857385C701B0E0FD
:10488000A0E028013901441A550A660A770A481639
:1048900059066A067B0618F47801E41AF50A6701DE
:1048A0008B819C8104969A838983612C32E0732EDC
:1048B000C114D10409F4B4C0AB81BC8118964D91E8
:1048C0005D916D917C911B975A01B1E0BB22EB8108
:1048D000FC81818D928D1A012B0129E05694479419
:1048E000379427942A95D1F72381223089F5DC016A
:1048F0005A966D917D918D919C915D97620D731D7E
:10490000841D951D83010A191B09C016D10608F4E0
:1049100086010115B2E01B0771F42091D910309186
:10492000DA104091DB105091DC1062177307840796
:10493000950709F057C040E07ED9882309F478CF65
:10494000B5016752714FA801C4010F947E0B55C089
:10495000FC01148111501221A114B10481F4111130
:104960000EC0452B462B472B79F5EB81FC818589C1
:104970009689A789B08D84839583A683B783AB81FD
:10498000BC815996ED91FC915A9714966D917D9149
:104990008D919C9117976250710981099109258524
:1049A00004C0660F771F881F991F2A95D2F72685A6
:1049B000378540895189620F731F841F951F610FCE
:1049C000711D811D911D9ECFAB81BC8114964D91AF
:1049D0005D916D917C91179729813A81F8D9811168
:1049E000CECF26CF9401AB01BC018091E210909113
:1049F000E310C7D8882309F41BCF800E911EEB81EA
:104A0000FC8180859185A285B385800F911FA11DB2
:104A1000B11D80879187A287B387C01AD10A48CF7A
:104A2000C70108CFDF92EF92FF920F931F93CF93AE
:104A3000DF938C01EB017A018DE0D82E40E250E04B
:104A4000BE01C801D6DE8032910571F021E0892BCC
:104A500009F420E0822F8195DF91CF911F910F9172
:104A6000FF90EF90DF90089528812223F1F1253EF9
:104A700011F02E3231F4E114F10401F3F701108248
:104A8000DDCFE114F10439F13B853F733F3019F577
:104A90004A8D5B8D452BF9F42F713FEF320F323089
:104AA000D0F42150330BD29EC001D39E900D11241F
:104AB000D701A80FB91FFE0120E0AD01253078F421
:104AC00031813D932F5F32962D30C1F7288126FF2B
:104AD00002C0FA0115862B8523FDB0CFBDCF2B3048
:104AE00010F43481EECF3681ECCF80E0B5CF4F9219
:104AF0005F926F927F92AF92BF92CF92DF92EF92CE
:104B0000FF920F931F93CF93DF931F92CDB7DEB722
:104B10008C017B015A01C22EDB0159968D919C912B
:104B2000F801928F818FCB011FDB712CF7018085FB
:104B30009185A285B38541895289638974898417D7
:104B40009507A607B70708F051C055E0B695A79599
:104B5000979587955A95D1F7F82FFF70DF2ED701DB
:104B600013968C91823010F480E0D9C041E050E07F
:104B7000BE016F5F7F4FC7013CDE0197A9F7F701C8
:104B800080859185A285B3854F96A11DB11D808733
:104B90009187A287B387F0E2DF9EB00111246752AC
:104BA000714F6115710501F3DB018C91882341F090
:104BB000853E09F04BC0772029F077247394B6CF57
:104BC00071100EC08091D9109091DA10A091DB1075
:104BD000B091DC10F80184879587A687B787D08AC3
:104BE000DB018C918111E9CF772473948C2D827431
:104BF000823409F0B9CF772009F4A1C0F801D08838
:104C000061E0C801ADDB009709F4AECF20E2DC0122
:104C10001D922A95E9F72BE0F501DC0101900D9238
:104C20002A95E1F721E238E2FC01318B208B40E04C
:104C300058E057874687338B228B318F208F578BD5
:104C4000468B0E94841D811109C08ECF4BE050E03D
:104C5000C5010F94710B892B09F068CFF0E2DF9E3C
:104C6000D00111249D012752314FF90183858171B3
:104C700021F08C2D827109F0FAC0F801818D928D9E
:104C80004091D9105091DA106091DB107091DC10D6
:104C90004487558766877787D08AFD01E752F14FB1
:104CA00044885588712C612C320155244424D80144
:104CB00055964D925D926D927C925897428D538D90
:104CC00070E060E0442955296629772955964D936F
:104CD0005D936D937C935897D9011B962C91287105
:104CE00009F0B8C0848D958DA68DB78DF801818BA4
:104CF000928BA38BB48B81E083838C2D8F70F80112
:104D0000818314821582168217821086118612867C
:104D1000138681E0C4FE03C0C8010E94C9CE0F9073
:104D2000DF91CF911F910F91FF90EF90DF90CF9087
:104D3000BF90AF907F906F905F904F900895D70194
:104D400013968C911397823009F40ECF51968D9162
:104D50009D910D90BC91A02D803E9F4FAF41B1051C
:104D600008F002CFC70104DA882309F4FDCE0E94BF
:104D7000841D882309F4F8CED7015996ED91FC9152
:104D80005A9714964D905D906D907C901797B2E075
:104D90004B1A510861087108858504C0440C551CE4
:104DA000661C771C8A95D2F786859785A089B1897C
:104DB000480E591E6A1E7B1E81E08093E1104092CE
:104DC000D9105092DA106092DB107092DC10E9ED8D
:104DD000FEE080E092E0DF019C011D922150304016
:104DE000E1F7DD24D394D7015996ED91FC918481AC
:104DF000D81698F429ED3EE0B301A2014D0D511DE6
:104E0000611D711D8091E2109091E3100E94261D9A
:104E1000882309F4A9CED394E6CF258580E092E0DB
:104E2000A0E0B0E004C0880F991FAA1FBB1F2A95FD
:104E3000D2F7F7014189528963897489840F951FDC
:104E4000A61FB71F818B928BA38BB48B89ED9EE03D
:104E5000D12CDCCE203159F498012F5E3F4F39D848
:104E6000882329F084E0D80113968C9346CFD8018B
:104E700013961C9279CE2F923F924F925F926F922F
:104E80007F928F929F92AF92BF92CF92DF92EF92DA
:104E9000FF920F931F93CF93DF93CDB7DEB7C35429
:104EA000D1090FB6F894DEBF0FBECDBF4C015B0138
:104EB0006A01222E19821C821C8E1F8E61157105BB
:104EC00011F510E0CE014C9628DCCE01019625DCD0
:104ED000812FCD5BDF4F0FB6F894DEBF0FBECDBF85
:104EE000DF91CF911F910F91FF90EF90DF90CF90C6
:104EF000BF90AF909F908F907F906F905F904F90FA
:104F00003F902F900895FC0183818111DACFFA013F
:104F100080818F32A9F18B01CE0101967C013C0189
:104F200080E2382E2E019CE1490E511C2396EFAEF3
:104F300023972496FFAE249722963FAE2297219680
:104F40003FAE21973FAE3EAE3DAE3CAE3BAE3AAE3D
:104F500039AE38AE3FAA960190E047E0D9018D9175
:104F6000882309F447C08F3209F444C0282F8E32B9
:104F700001F54A3009F4A5CF98E04AE09D01EECF53
:104F8000FB01838182508B01823058F0618D728DDC
:104F9000CE014C9607D88E01045E1F4F882309F47A
:104FA00090CFC6016C010196F60120812F32D1F31A
:104FB000B3CFECE8F0E13491332321F03196831341
:104FC000FACF7FCF491708F47CCF813208F479CF2C
:104FD0008F3709F476CF3FE9380F3A3110F420EEDD
:104FE000280FE7E3F0E0EC0FFD1FE90FF11D208330
:104FF0009F5FC4CF8FA9803209F463CF6901F901A3
:1050000080812F5F3F4F8F32C9F38823F1F021E079
:10501000AE01495C5F4FB801C70169DD882309F41F
:1050200050CF0A151B0511F0C8016FDB942D852D9B
:105030006E147F0431F023969FAD239724968FAD95
:1050400024978701E92EF82E77CF222DAE01495CF7
:105050005F4FB801C4014BDD182F34CF8F929F9260
:10506000AF92BF92CF92DF92EF92FF921F93CF93B6
:10507000DF9300D01F92CDB7DEB74B015C01690111
:105080007A0120E030E048E352E4C701B6010F9412
:10509000660869837A838B839C8320E030E044E256
:1050A00052E4C501B4010F946508AE014F5F5F4F34
:1050B0000E94D616182F882351F12AEF3EEF43E2C3
:1050C00052E4C501B4010F948C0A87FD1FC022E48D
:1050D00030E048E453E4C501B4010F942E041816DF
:1050E000ACF02FE632E143E85AEBC701B6010F946A
:1050F0008C0A87FD0BC011E022E430E04AE153E462
:10510000C701B6010F942E0418160CF410E0812F7D
:105110000F900F900F900F90DF91CF911F91FF9004
:10512000EF90DF90CF90BF90AF909F908F900895B9
:1051300029E133E0FC01318320830496EECA159AFD
:1051400080916E0E8E7F80936E0E179A80916E0EF8
:105150008D7F80936E0E429A80916E0E8B7F80932E
:105160006E0EA09A0895CF93DF9380E00E947DABEE
:10517000CFE7DEE0688379838A839B8381E00E94A6
:105180007DAB6C837D838E839F8382E00E947DABA9
:10519000688779878A879B87DF91CF9108954F929F
:1051A0005F926F927F928F929F92AF92BF92CF92B7
:1051B000DF92EF92FF920F931F93CF93DF93EC0157
:1051C0006091FD057091FE05072E000C880B990B70
:1051D0000F9434049B01AC01688179818A819B81A1
:1051E0000F9465086B017C016091FF0570910006CA
:1051F000072E000C880B990B0F9434049B01AC0113
:105200006C817D818E819F810F9465084B015C01CB
:10521000A701960160910A0270910B0280910C0225
:1052200090910D020F942E04882309F451C0C0926E
:105230000A02D0920B02E0920C02F0920D02209131
:10524000C7053091C8054091C9055091CA05C701ED
:10525000B6010F9493042B013C010F94DB096B0101
:105260007C0120E030E0A9010F942E0487FD71C07D
:1052700020E030E040EA50E4C701B6010F948C0A08
:10528000181634F4C12CD12CC0EAEC2EC0E4FC2E4C
:10529000A7019601C301B2010F9465086093C3058D
:1052A0007093C4058093C5059093C605C701B601E8
:1052B0000F94AA096093C205062E000C770B6F5F4E
:1052C0007F4F6630710514F066E070E06093C105B1
:1052D000D09105021091C205A501940160910602CA
:1052E0007091070280910802909109020F942E0498
:1052F000811133C0D11382C02091DF043091E004CA
:105300004091E1045091E2046091C3057091C4059D
:105310008091C5059091C6050F9493042091E304F4
:105320003091E4044091E5045091E6040F9466083E
:10533000DF91CF911F910F91FF90EF90DF90CF9071
:10534000BF90AF909F908F907F906F905F904F90A5
:105350000895C12CD12C76019BCF809206029092A9
:105360000702A0920802B09209022091CB05309169
:10537000CC054091CD055091CE05C501B4010F94E7
:1053800093044B015C010F94DB096B017C0120E06D
:1053900030E0A9010F942E0487FDF0C020E030E03A
:1053A00040EA50E4C701B6010F948C0A181634F491
:1053B000C12CD12CB0EAEB2EB0E4FB2EA701960154
:1053C000C501B4010F9465086093BD057093BE05D7
:1053D0008093BF059093C005C701B6010F94AA0939
:1053E0006093BC05062E000C770B6F5F7F4F663015
:1053F000710514F066E070E06093BB05C091BC05D8
:10540000D11305C0809104028C1709F46CC010936D
:105410000502C09304020C2E000CDD0B27E01203E2
:10542000C0011124FC01EC0FFD1FEE0FFF1FEE0F5A
:10543000FF1FE950FB4F208131814281538120932E
:10544000F3043093F4044093F5045093F604009170
:10545000BB05002E000C110BFC01E00FF11FEE0F3D
:10546000FF1FEE0FFF1FE950FB4F608171818281AA
:1054700093810F9465086093EF047093F004809318
:10548000F1049093F2042091C10537E02303F00169
:105490001124CE0FDF1FCC0FDD1FCC0FDD1FC95035
:1054A000DB4F288139814A815B812093EB04309363
:1054B000EC044093ED045093EE04E00FF11FEE0F67
:1054C000FF1FEE0FFF1FE950FB4F6081718182814A
:1054D00093810F9465086093E7047093E8048093C8
:1054E000E9049093EA048090BD059090BE05A090D9
:1054F000BF05B090C0052091EF043091F0044091B9
:10550000F1045091F204C501B4010F949304209169
:10551000F3043091F4044091F5045091F6040F9493
:1055200066086B017C01C092E304D092E404E0922F
:10553000E504F092E6042091E7043091E8044091FC
:10554000E9045091EA04C501B4010F949304209139
:10555000EB043091EC044091ED045091EE040F9473
:105560006608A70196010F9465086093DF047093A5
:10557000E0048093E1049093E204BECEC12CD12CD0
:1055800076011CCFBC018BEB91E10E94759A67E715
:1055900071E080E090E00C94E2E32F923F924F9212
:1055A0005F926F927F928F929F92AF92BF92CF92B3
:1055B000DF92EF92FF920F931F93CF93DF9300D070
:1055C00000D000D01F92CDB7DEB72B013C012D8358
:1055D0003E834F83588747015801DA86C9868091F8
:1055E000550290915602A0915702B09158028983BA
:1055F0009A83AB83BC83D6011C9111960C911197B1
:1056000012963C90129713962C9020E030E0A9015E
:10561000612F702F832D922D0F942E0481110AC0BB
:10562000E4E4F0E185919591A591B491182F092FAB
:105630003A2E2B2EA50194016091BD0E7091BE0EE5
:105640008091BF0E9091C00E0F942E0487FF16C05C
:10565000812F902FA32DB22D809355029093560247
:10566000A0935702B09358028092BD0E9092BE0E46
:10567000A092BF0EB092C00E0E94EB18E985FA8589
:10568000C080D180E280F38020E030E0A901C70132
:10569000B6010F942E04811108C0C0905102D09021
:1056A0005202E0905302F0905402C0925502D09200
:1056B0005602E0925702F09258024092B50E509274
:1056C000B60E6092B70E7092B80E8D819E81AF813A
:1056D000B8858093B90E9093BA0EA093BB0EB09389
:1056E000BC0E0E94EB18A50194016091BD0E709153
:1056F000BE0E8091BF0E9091C00E0F948C0A1816AA
:10570000B4F4812F902FA32DB22D80935502909346
:105710005602A0935702B09358028092BD0E909209
:10572000BE0EA092BF0EB092C00E0E94EB180E9457
:1057300095AA89819A81AB81BC818093550290930F
:105740005602A0935702B09358022A960FB6F894C7
:10575000DEBF0FBECDBFDF91CF911F910F91FF90A4
:10576000EF90DF90CF90BF90AF909F908F907F9001
:105770006F905F904F903F902F900895CF92DF925F
:10578000EF92FF920F931F936B01FC01E080F18079
:1057900002811381E5EBFEE024813581468157814A
:1057A0006081718182819381F8DE1F910F91FF905A
:1057B000EF90DF90CF900895CF92DF92EF92FF921B
:1057C000CF93DF9300D000D01F921F92CDB7DEB7EA
:1057D00020E030E040EA50E46091BD0E7091BE0ED2
:1057E0008091BF0E9091C00E0F942E048823E1F09B
:1057F0001D821E821F821886C12CD12C80EAE82EC1
:1058000080E4F82EC982DA82EB82FC82BE016B5FF3
:105810007F4FCE010196B2DFC092BD0ED092BE0E78
:10582000E092BF0EF092C00E28960FB6F894DEBF3D
:105830000FBECDBFDF91CF91FF90EF90DF90CF9063
:105840000895BF92CF92DF92EF92FF920F931F9332
:10585000CF93DF9300D000D01F921F92CDB7DEB759
:105860009091B30C981709F476C0B82E80E090E0C0
:10587000A0E4B0E48D839E83AF83B887C0907B0E95
:10588000D0907C0EE0907D0EF0907E0E20E030E017
:10589000A901C701B6010F942E0487FF0CC0A70110
:1058A000960160E070E080E490E40F9465086D83F9
:1058B0007E838F83988720E030E049E353E46D8155
:1058C0007E818F8198850F948C0A181644F480E0AD
:1058D00090E0A9E3B3E48D839E83AF83B8872D81E5
:1058E0003E814F8158856091BD0E7091BE0E8091B2
:1058F000BF0E9091C00E0F942E0487FF0AC019822C
:105900001A821B821C82BE016F5F7F4FCE010596FB
:1059100035DF6091B50E7091B60E8091B70E909103
:10592000B80E2091B90E3091BA0E4091BB0E509135
:10593000BC0E19821A821B821C82E090BD0EF09070
:10594000BE0E0091BF0E1091C00EFE0131966F0188
:1059500024DEB092B30C80E028960FB6F894DEBF38
:105960000FBECDBFDF91CF911F910F91FF90EF90B0
:10597000DF90CF90BF9008950F931F93CF93DF9345
:10598000CDB7DEB72C970FB6F894DEBF0FBECDBFF4
:10599000E5EBFEE080859185A285B3854481558144
:1059A00066817781008111812281338109831A8385
:1059B0002B833C834D835E836F83788789879A87A7
:1059C000AB87BC87AE01475F5F4FBE016B5F7F4F08
:1059D000CE0101960E941EAC21EC3EE0AE01475F75
:1059E0005F4FBE016B5F7F4FCE0101960E94A5AA5B
:1059F0002C960FB6F894DEBF0FBECDBFDF91CF91CE
:105A00001F910F910895CF9380916F00C82FC2709E
:105A100081FF05C080916F008D7F80936F00809122
:105A2000291180932811809327118093261184E6F1
:105A3000809325110E94FEAC88EE93E090931C0B9E
:105A400080931B0BCC2329F080916F0082608093A0
:105A50006F0081E08093190B0E9495AA84DB8FE789
:105A60009EE00E94E8AB8CE0EFE7FEE0A5EBBEE035
:105A700001900D928A95E1F7CF917ECF1F93CF933E
:105A8000DF93CDB7DEB72C970FB6F894DEBF0FBE0D
:105A9000CDBF882331F020912B0B30912C0B232B81
:105AA00069F190912F0B981749F1182F0E9495AA30
:105AB0008CE0EFE5F2E0DE01119601900D928A95FF
:105AC000E1F7CE0101966BDB10932F0B111120C073
:105AD0004ADB8FE79EE00E94E8AB8091870E9091B1
